{
  "contractName": "Todolist",
  "abi": [
    {
      "constant": true,
      "inputs": [],
      "name": "taskCount",
      "outputs": [
        {
          "name": "",
          "type": "uint256"
        }
      ],
      "payable": false,
      "stateMutability": "view",
      "type": "function",
      "signature": "0xb6cb58a5"
    }
  ],
  "bytecode": "0x608060405260008055348015601357600080fd5b506099806100226000396000f3fe608060405260043610603e5763ffffffff7c0100000000000000000000000000000000000000000000000000000000600035041663b6cb58a581146043575b600080fd5b348015604e57600080fd5b5060556067565b60408051918252519081900360200190f35b6000548156fea165627a7a72305820352d68470019f660d89acd904e881a6e0f5c3862f1f33e6b7c9291f739ae2e240029",
  "source": "// declare the version of the solidity programming language\r\npragma solidity ^0.5.0;\r\n\r\n// declare contract\r\ncontract Todolist {\r\n    // keep track of the number of todolist\r\n    uint public taskCount = 0; // state variable - represents the state of the contract of the blockchain\r\n}\r\n\r\n",
  "sourcePath": "D:/xampp/htdocs/blockchain/todo-list/contracts/Todolist.sol",
  "compiler": {
    "name": "solc",
    "version": "0.5.0+commit.1d4f565a.Emscripten.clang"
  },
  "schemaVersion": "3.0.1",
  "updatedAt": "2020-08-07T07:58:44.531Z",
  "devdoc": {
    "methods": {}
  },
  "userdoc": {
    "methods": {}
  }
}